:100000000C9464000C94BD000C948F000C948F0031
:100010000C948F000C948F000C948F000C948F0024
:100020000C948F000C948F000C948F000C948F0014
:100030000C948F000C948F000C948F000C948F0004
:100040000C948F000C948F000C948F000C948F00F4
:100050000C948F000C948F000C948F000C948F00E4
:100060000C948F000C948F0009021900010100808C
:100070006409040000010000000007058103080076
:100080000A12011001FF000008C016DC0500010182
:100090000203011603440047003800530041005199
:1000A000002D004900320043001A037700770077E3
:1000B000002E006F0062006400650076002E006173
:1000C000007400040309040011241FBECFEFD8E020
:1000D000DEBFCDBF14BE0FB6F894A8958091600026
:1000E000886180936000109260000FBE229A15B85C
:1000F00011E0A0E0B1E0E6E8F6E102C005900D9263
:10010000A436B107D9F721E0A4E6B1E001C01D9201
:10011000A73BB207E1F70E94B3080C94410B0C9483
:10012000A006A82FB92F80E090E041E050EA60954A
:1001300030E009C02D9182279795879510F084278C
:100140009527305EC8F36F5FA8F30895EADF8D93BB
:100150009D930895A6E088279927AA9569F00197AD
:10016000E1F31D99FCCF1D9BFECF81E09927A3B140
:10017000019611F0A872D9F70895CF93CFB7CF9316
:10018000DF93C3951D9BE9F71D9B0BC01D9B09C009
:100190001D9B07C01D9B05C01D9B03C01D9B01C06F
:1001A0008BC06F93C0919A01DD27CF55DE4F2F93FF
:1001B00065E51D9B03C02F916F91E6CF0F931F93B1
:1001C0004F9320E040E15F9303B1087205FB27F9EC
:1001D0003F9350E03BE039C0187240642F77012F05
:1001E0005F5F1EC0406813B118722F7752501FC056
:1001F000406403B12F770872D1F15F5F00C023C064
:10020000406213B12F77187291F15F5F00C025C073
:1002100008721027515012F45D5F000011502795AD
:100220002C3F13B1C8F618720127015027952C3FB7
:10023000C8F64227499303B1087210274F73115033
:1002400027952C3FA8F64695469513B1187279F07C
:100250000127015027952C3F98F66B5A60F33150D7
:1002600003B1B0F600C011E01CBB002719C03B5021
:100270003195C31BD04011E01CBB0881033C09F140
:100280000B34F9F0209198011981110F1213EDCF61
:100290004A81441F093651F10D3211F0013E29F710
:1002A00000939F013F915F914F911F910F912F916B
:1002B0006F91CCB3C0FD65CFDF91CF91CFBFCF9110
:1002C000189520919F01222369F310919D0111231C
:1002D00091F5343092F130939D0120939901109162
:1002E0009A013BE0311B30939A0127C000919D0198
:1002F00001300CF50AE54F7049F43091620134FD8C
:100300001DC000936201C1E8D1E01CC030918C0196
:1003100034FD14C000938C01CDE8D1E013C0052753
:1003200010E000C0000005B91AC0052710E0221F28
:100330001DC010E021C04AE502C032ED432FC4E1E8
:10034000D0E032E014B118622D9A05B114B958E228
:1003500020E865E320FF052705B9279517951C3F81
:10036000F0F66695B8F7B1F720FF052705B9279590
:1003700017951C3FD0F62795179517FF0527000006
:100380001C3F05B9B0F629913A9519F7077D1091F0
:100390009E01110FC651D04005B911F0109398017C
:1003A00011E01CBB006214B1177D402F477D54E063
:1003B0005A95F1F705B914B945B974CF8F929F9248
:1003C000AF92BF92CF92DF92EF92FF920F931F9363
:1003D0008B019C0160930C0170930D0180930E01C1
:1003E00090930F0160911201709113012617370746
:1003F00080F060911401709115012617370758F0AD
:1004000060911601709117012617370730F482E0CA
:1004100005C080E003C081E001C083E090E0FC0102
:10042000EE0FFF1FEE0FFF1FE25EFE4FC080D18078
:10043000E280F380880F991F880F991FFC01E25D0D
:10044000FE4F80809180A280B38060E070E0CB019D
:1004500051E20C191D092E093F09889420F4680DFA
:10046000791D8A1D9B1D979587957795679537957B
:100470002795179507955A9589F75BE0220F331F4B
:10048000661F771F881F991F5A95C1F71F910F91FB
:10049000FF90EF90DF90CF90BF90AF909F908F90A4
:1004A0000C94D202CF93C82F0E9447068091460138
:1004B000880F0E94750680917801811105C08C2FEC
:1004C0000E94750681E001C080E0CF91089587EE1B
:1004D0000E945202882361F0809174010E94750687
:1004E000809175010E947506809176010E947506C3
:1004F0000C94550686E696E6A6E0B0E080934701A8
:1005000090934801A0934901B0934A01809143011F
:10051000823039F0833051F080E090E0A0E8BBEB0E
:1005200009C080E090E0A0E0B4E604C080E090E084
:10053000A0EAB8E280934B0190934C01A0934D0147
:10054000B0934E0181E0809377010895199B1AC002
:10055000809177018823C9F010926401109265019F
:10056000109266011092670160910C0170910D016B
:1005700080910E0190910F0140E00E94DE01809178
:10058000780101C081E0809377010895CF93C62F51
:100590000E945202882319F08C2F0E947506CF9179
:1005A0000C9455062F923F924F925F926F927F92DA
:1005B0008F929F92AF92BF92CF92DF92EF92FF9273
:1005C0000F931F93CF93DF93CDB7DEB76C970FB622
:1005D000F894DEBF0FBECDBF2B013C0180914301DB
:1005E0008430E1F08091470190914801A091490148
:1005F000B0914A01481659066A067B0608F43FC2C4
:1006000080914B0190914C01A0914D01B0914E0110
:1006100084159505A605B70508F431C22090100190
:10062000309011012114310409F402C18090640159
:1006300090906501A0906601B0906701898E9A8EB6
:10064000AB8EBC8E81149104A104B10409F4F0C0F6
:1006500093018201C12CD12C76012B8B3C8B920112
:100660004B895C8960E070E080E090E0898A9A8A3A
:10067000AB8ABC8ACD8ADE8AEF8AF88E5401CB8899
:10068000DC88E12CF12C00E010E00E94FA0A2987B6
:100690003A874B875C87E92FE07831F00E94CC0ADB
:1006A00029873A874B875C878B859C85807C892B43
:1006B00009F0BEC009851A852B853C8540E050E0D5
:1006C000BA0189E09DE35A016B01AA27BB270CC040
:1006D000400F511F621F731FAA1EBB1E000F111F68
:1006E000221F331FAA1FBB1F9695879588F3904042
:1006F000A9F749835A836B837C83AD82BE82CF8204
:10070000D8868F8198854983AD8229813A814B8132
:100710005C816D817E81C12CD12C7601F4E4898CC1
:100720009A8CAB8CBC8C220F331F441F551F661F45
:10073000771FCC1CDD1CEE1CFF1C28F0C814D9044C
:10074000EA04FB0428F0C818D908EA08FB08239536
:10075000FA9549F73A8329835C834B837E836D83C3
:100760003A815C817E8129873A874B875C870EE0DE
:100770000E94DE0A4101A12CB12CC12CD12C7601A2
:10078000298A9A8AAB8ABC8ACD8ADE8AEF8AF88E59
:100790005101C12CD12CE12CF12C00E010E00E9481
:1007A000030B08F045C049855A856B857C85412C33
:1007B000512C32018CE396E893018201AA27BB27D2
:1007C0000CC0440E551E661E771E0A1F1B1F440FC9
:1007D000551F661F771FAA1FBB1F9695879588F325
:1007E0009040A9F749825A826B827C820D831E83D6
:1007F0002F8338876A814B815C817E818F819885C8
:10080000E11104C04B875C870D8708C0242D362F6B
:10081000602F0E94CC0A4B875C876D878B85809305
:1008200074018C85809375018D85809376010DC14F
:100830004092640150926501609266017092670176
:1008400060E070E0CB0180913F0190914001830115
:1008500020E030E0A90198010E94AA0ADA01C9014A
:100860004BE0B695A795979587954A95D1F7FC01EA
:100870003770232B09F03196CF016EEF77E00E949D
:10088000960A90E0662319F066959F5FFBCF96303D
:1008900008F095E0A92F9F01092E02C036952795F3
:1008A0000A94E2F7911107C02232310520F020FFAF
:1008B00002C02F5F3F4FB301A20120936C01832F31
:1008C00087709295907F982B90936D0102C0220FB4
:1008D000331FAA95E2F7C12CD12C760146015701AE
:1008E00026013701AA27BB270CC0840E951EA61E21
:1008F000B71E4A1E5B1E440F551F661F771FAA1F97
:10090000BB1F3695279588F33040A9F7B301A201A4
:1009100089829A82AB82BC824D825E826F827886A7
:10092000409008015090090160900A0170900B01FD
:1009300089824D8349815A812B813C818D819E81A1
:1009400063E5440F551F221F331F881F991FCC1CBE
:10095000DD1CEE1CFF1C28F0C414D504E604F704CB
:1009600028F0C418D508E608F70843956A9549F7B2
:100970005A8349833C832B839E838D835A813C8198
:100980009E8140936E0150936F01209370013093CC
:100990007101809372019093730160E08FEF0E9468
:1009A000C6028091780181113EC060E085E40E941A
:1009B000C60260E081E10E94C60287E10E94520205
:1009C000882341F080916C010E94750680916D0131
:1009D0000E9475060E9455068AE10E9452028823F1
:1009E000C1F080916E010E94750680916F010E9496
:1009F0007506809170010E947506809171010E94B8
:100A00007506809172010E947506809173010E94A3
:100A100075060E94550668E087E00E94C60261E004
:100A200081E10E94C60280917401811108C0809109
:100A30007501811104C080917601882301F1109223
:100A4000740110927501109276016C960FB6F894AD
:100A5000DEBF0FBECDBFDF91CF911F910F91FF90F1
:100A6000EF90DF90CF90BF90AF909F908F907F904E
:100A70006F905F904F903F902F900C9467026C9610
:100A80000FB6F894DEBF0FBECDBFDF91CF911F919F
:100A90000F91FF90EF90DF90CF90BF90AF909F901D
:100AA0008F907F906F905F904F903F902F90089520
:100AB000CF93DF9387E10E9452028823A1F00E9426
:100AC000470680914601880F81600E9475060E944A
:100AD000910680936C010E9461060E9491068093AA
:100AE0006D010E946B060E9455068AE10E94520227
:100AF0008823C9F00E94470680914601880F8160D3
:100B00000E947506CEE6D1E00E94910689930E946C
:100B1000610681E0C337D807B9F70E949106809338
:100B200073010E946B060E94550687EE0E945202D6
:100B30008823D1F00E94470680914601880F81608A
:100B40000E9475060E949106809374010E946106BE
:100B50000E949106809375010E9461060E94910691
:100B6000809376010E946B060E9455068091780161
:100B7000811102C08BE001C080E0DF91CF91089528
:100B8000CF92DF92EF92FF920F931F93CF93DF9359
:100B9000FC018081482F429546954770218134E0C1
:100BA000839FC00111248C77122F129516951695EC
:100BB0001370812B11E0180F04E0040F458154815C
:100BC000838162812F7330E0B9E2932FDB2F72ECC7
:100BD000C72E75EFD72E78E4E72E72E7F72EA32FF6
:100BE000732FC32F889420F49C0DAD1D7E1DCF1D47
:100BF000C7957795A7959795279567958795579565
:100C00004795DA9581F7660F221F991FAA1F771F54
:100C1000CC1F019FA00111246A2F872FAC2F7B2F9F
:100C2000B32F8894221F991F661F881FAA1F331F86
:100C3000BB1F341BB50B20F4340FB51F889401C0C3
:100C400008947A9579F72083918362838383DF9177
:100C5000CF911F910F91FF90EF90DF90CF9008956B
:100C600083E390E02AE12A95F1F700C0019721F48F
:100C700081E0809378010895199BF4CF089524981A
:100C800021980E94300683B1219A807108951092B4
:100C900078012198249A8AE18A95F1F700C0219A77
:100CA0008AE18A95F1F700C00895249A21988AE193
:100CB0008A95F1F700C024988AE18A95F1F700C07F
:100CC0000895249A21980E943006219A8AE18A95F3
:100CD000F1F700C00895249821980E943006219AC7
:100CE0008AE18A95F1F700C008951F93CF93DF93AF
:100CF000182FC8E0D0E8812F8D2319F40E946106D7
:100D000002C00E946B06D695C150A9F70E943F060B
:100D100090917801892B80937801DF91CF911F9179
:100D20000895CF93DF93D8E0C0E0CC0F0E943F0638
:100D30008111C160D150C9F78C2FDF91CF910895F7
:100D40001895CF93DF93EC0180916801803361F4B3
:100D50006B3009F07FC0CE010E94C00568817981A7
:100D60008A819B8140E044C08133C1F5683009F03D
:100D700071C06091690163706093690170E06A5F9E
:100D80007F4F660F771F660F771FDB01AA5FBE4F8D
:100D900084E0FE0101900D928A95E1F76050704069
:100DA00044E050E0CE010E94240BCE0104966091F5
:100DB000690170E0665F7F4F660F771F660F771FD0
:100DC000DB01AA5FBE4F24E0FC0101900D922A9541
:100DD000E1F76050704044E050E03AC0823359F48B
:100DE0006430C1F5688179818A819B814091690174
:100DF0000E94DE012FC0833399F4643059F5888155
:100E00009981AA81BB818093080190930901A093E5
:100E10000A01B0930B0144E050E062E070E017C0BB
:100E2000843339F46430B1F444E050E066E070E0BB
:100E30000EC0853379F4623069F48881998190938A
:100E400011018093100142E050E06AE070E0CE01B1
:100E50000E94240B81E0DF91CF9108951F93CF93DF
:100E6000DF93EC0199819093680129E731E0309399
:100E70009C0120939B018FEF80937901911103C016
:100E800080E19FE0D5C0913021F48A81877D84B9CB
:100E900064C1923011F483B103C0933029F485B159
:100EA0008093790191E05AC1943051F48091070107
:100EB000982F917080FD51C18A81877D85B94EC17F
:100EC0009F3009F4FFCF8BEE890F823008F443C1C5
:100ED000973199F51C818D8181113FC1143030F516
:100EE000612F70E02A813B816A5F7F4F660F771F19
:100EF000CB018A5F9E4FFC0131832083605070409C
:100F000042E050E00E94240B133081F49A818091DA
:100F10000701992311F0816001C08E7F8093070142
:100F20006091070181E090E00E942E0B82E191E048
:100F300090939C0180939B0131C0903229F46C8185
:100F40008B810E94C6025EC080ED890F863028F436
:100F50008C81809369019FEF01C1993309F58C81E0
:100F6000837090E0FC01EE0FFF1FEE0FFF1FE25EAB
:100F7000FE4F24E0A9E7B1E001900D922A95E1F738
:100F8000FC01EE0FFF1FEE0FFF1FE25DFE4F84E03E
:100F9000ADE7B1E001900D928A95E1F798E0DEC0EF
:100FA0009A3319F48CE091E0A5C09B3339F480E1C9
:100FB00091E090939C0180939B01CDC09C3349F4B8
:100FC00044E050E066E070E089E791E00E940C0B9D
:100FD00095C09D3319F488E091E08CC09F3381F473
:100FE0008CE691E090939C0180939B018C81811110
:100FF00002C080914401DF91CF911F910C9458055C
:10100000903419F4809178014BCF913469F4809138
:101010004601809379016A81662309F443CF609386
:10102000460180E490E094C0923439F40E940209B1
:1010300090937A01809379018EC0933469F4809102
:101040003E01809379016A81662309F42BCF609376
:101050003E0188E390E07CC0943471F56A81662398
:1010600089F0609343018DE390E00E942E0B6B8129
:10107000609344018EE390E00E942E0B0E947A025E
:101080000E94A6026C817D816115710591F08B81B2
:10109000811107C07093400160933F0189E390E0A4
:1010A00006C070934201609341018BE390E00E947F
:1010B0003C0B8FE391E004C0953441F480E091E073
:1010C00090939C0180939B0196E048C0983171F405
:1010D0001A81CC81C370D0E0612FCE018C5E9F4F0E
:1010E0000E942E0BCA5FDE4F1C8B02C0993141F467
:1010F0008AE191E090939C0180939B0194E02EC043
:1011000080EB890F8230A0F481E180937901809196
:10111000070180FDC7CE903531F48A81811102C06C
:101120002A9801C02A9A83B1909179018923B8CE77
:10113000953509F0B7CE609107018A81682B8C81C3
:1011400080956823609307016093790181E090E0C6
:101150000E942E0BA7CE92E001C090E0892FDF9174
:10116000CF911F91089580E490E00E941C0B8F3F67
:1011700049F449E450E060E070E086E091E00E94CC
:10118000240B08C049E450E060E070E086E091E0A4
:101190000E940C0B809106018F3F11F08093660036
:1011A0000E947A020E94A60280913E0190E09093F4
:1011B000600180935F012FEF81EE94E02150804029
:1011C0009040E1F700C00000259A2FEF87E893E1F7
:1011D000215080409040E1F700C0000025989CE03D
:1011E00088E10FB6F894A895809360000FBE9093A5
:1011F00060000E94890A7894A8950E945C090E9468
:10120000A602FACF8FE880937C0087EC80937A0067
:1012100080917A0086FDFCCF8091780090917900D2
:1012200010927A000895DF92EF92FF920F931F932E
:10123000CF93DF9308E010E0C0E0D0E8DD2EDC0EB5
:10124000D09266000E94AA007C018CEEE81688E02D
:10125000F8060CF4CD2DD6950150110979F78FEFD2
:101260008C0F809366000C2F10E00F5F1F4F809152
:10127000660090E008171907ACF00E94AA008C5E87
:10128000984097FF03C09195819591098E159F0510
:101290001CF4C09166007C01809166008F5F809392
:1012A0006600E5CFC0936600DF91CF911F910F914B
:1012B000FF90EF90DF900895CF93DF9360919D01B1
:1012C000635067FDC0C080919A01CCE0D0E0C81B9C
:1012D000D109CF55DE4F809199018D3209F0A1C01F
:1012E000683009F0AEC083EC809381018AE5809379
:1012F000620110926B018881807639F0CE010E94E4
:101300002E078F3F09F47CC082C09A8110928A0117
:101310008981811106C010928B012AE831E082E0B8
:101320006AC0853019F490939E0162C0863009F03E
:1013300049C08B81813041F481E890E090939C0119
:1013400080939B0190E437C0823049F488E690E0B6
:1013500090939C0180939B0190E489E130C083309D
:1013600061F5911109C083EC90E090939C0180930A
:101370009B0190E484E023C0913049F489EA90E035
:1013800090939C0180939B0190E48AE118C0923075
:1013900049F483E990E090939C0180939B0190E451
:1013A00086E10DC0933049F48FE491E090939C0165
:1013B00080939B0190E082E102C090E480E09093F2
:1013C0006B0125C0883069F0893019F49093A00131
:1013D0000FC08A3049F08B3059F48BE480938D0133
:1013E00007C020EA31E002C02AE831E081E003C012
:1013F0002AE831E080E030939C0120939B0107C0F4
:10140000988197FD8E8190E890936B0107C09F8132
:10141000911104C09E81981708F4892F809361016F
:1014200010C080916B0187FF0CC0CE010E94A10605
:101430008F3F21F48EE18093620103C081111092ED
:10144000610110929D018091620184FF46C08091EC
:1014500061018F3F09F441C0C82F893008F0C8E00E
:101460008C1B809361019091810188E8892780938A
:101470008101CC2329F180919B0190919C012091C5
:101480006B0126FF0AC0A2E8B1E0FC012C2F3491C9
:101490003D9331962150D9F708C0DC01E2E8F1E034
:1014A0002C2F3D9131932150E1F72FEF2C0F30E09D
:1014B0002F5F3F4F820F931F90939C0180939B015E
:1014C0006C2F82E891E00E94A600CC5FCC3019F02E
:1014D0008FEF80936101C093620184E193B19872B0
:1014E00031F48150D9F710929E0110929801C1E019
:1014F0008111C0E090916A01C91741F0882321F061
:10150000F8940E9413097894C0936A01DF91CF91F7
:101510000895E9E6F0E0808182608083E89AECE853
:10152000F1E08BE481838AE580830895AA1BBB1BCD
:1015300051E107C0AA1FBB1FA617B70710F0A61BD3
:10154000B70B881F991F5A95A9F780959095BC01F4
:10155000CD010895A1E21A2EAA1BBB1BFD010DC0EF
:10156000AA1FBB1FEE1FFF1FA217B307E407F50753
:1015700020F0A21BB30BE40BF50B661F771F881F2F
:10158000991F1A9469F760957095809590959B01C5
:10159000AC01BD01CF01089560957095809590953F
:1015A00030954095509521953F4F4F4F5F4F6F4F6E
:1015B0007F4F8F4F9F4F089597FB10F816940008A8
:1015C0000F93083098F00850232F342F452F562FB3
:1015D000672F782F892F902DF4CF059497958795B5
:1015E0007795679557954795379527950A95AAF763
:1015F0000F9108952A193B094C095D096E097F096D
:10160000800B910B08952A153B054C055D056E0571
:101610007F05800791070895DC01CB01FC01F99952
:10162000FECF06C0F2BDE1BDF89A319600B40D922E
:1016300041505040B8F70895F999FECF92BD81BD51
:10164000F89A992780B50895DC01CB0103C02D914C
:101650000E942F0B41505040D0F70895262FF99942
:10166000FECF1FBA92BD81BD20BD0FB6F894FA9A85
:10167000F99A0FBE019608950E942E0B272F0C9405
:061680002F0BF894FFCFD0
:10168600C00199999998FF00999999980000800C42
:10169600B603000200040008000000010203000077
:1016A6000000000000000000000000000000000034
:1016B6002000000020000000200000002000303044
:1016C6002ADF300117055500000000000000001257
:1016D6000350004500300046004B004F002D0030FF
:0416E60000FF5A00A7
:00000001FF
