S01D00004156522D4669726D776172652D617474696E7938352E7372656381
S11300003EC090C062C061C060C05FC05EC05DC0E1
S11300105CC05BC05AC059C058C057C056C0090222
S113002019000101008064090400000100000000BF
S11300300705810308000A12011001FF000008C02F
S113004016DC0500010102030116034400470038D1
S1130050005300410051002D004900320043001AB2
S1130060037700770077002E006F0062006400655C
S11300700076002E006100740004030904001124BA
S11300801FBECFE5D2E0DEBFCDBF14BE0FB6F894DD
S1130090A89581B5886181BD11BC0FBEBC9A18BA00
S11300A010E0A0E6B0E0E8E3F7E102C005900D92AD
S11300B0A43CB107D9F721E0A4ECB0E001C01D9243
S11300C0A731B207E1F78BD835CB2BC6A82FB92FB0
S11300D080E090E041E050EA609530E009C02D9165
S11300E082279795879510F084279527305EC8F36B
S11300F06F5FA8F30895EADF8D939D930895A6E0BA
S113010088279927AA9569F00197E1F3B299FCCF62
S1130110B29BFECF81E09927A6B3019611F0A5709A
S1130120D9F70895CF93CFB7CF93C395B29BE9F78F
S1130130B29B0BC0B29B09C0B29B07C0B29B05C067
S1130140B29B03C0B29B01C0D5C00F92DF93C09194
S1130150FA00DD27CF5FDE4F012EB29B03C0DF9193
S11301600F90E6CF2F930F931F934F932FEF4F6F63
S113017006B302FB20F95F933F9350E03BE065C078
S113018016B30126502952FDC89556B3012702FB28
S113019025F92F7306B3B1F05027102712FB26F967
S11301A006B22230F0F000C016B3012702FB27F993
S11301B00126502906B22430E8F54F77206816B39B
S11301C00000F6CF50274F7D206206B2102F0000AA
S11301D000C006B300265029102712FB26F906B2E8
S11301E0E2CF4F7B06B3206400C0DACF012650294A
S11301F0157006B269F14E7F2160012F16B328C035
S1130200002650294D7F06B22260102F29C00126F6
S113021050294B7F06B22460012F2DC016B301264E
S11302205029477F2860000006B22EC04F7E06B3D7
S1130230206130C0422706B3499300265029102775
S113024006B24FEF12FB20F9297F16B379F215702D
S113025059F10126502906B2012702FB21F9237F17
S113026006B371F2002650293150D0F006B210279F
S113027012FB22F9277E16B351F2012650290127D9
S113028002FB06B223F92F7C49F2000006B31027C3
S113029012FB24F90026502906B22F7939F270CFC7
S11302A010E41ABF002719C03B503195C31BD0403E
S11302B010E41ABF0881033C09F10B34F9F02091D2
S11302C0F8001981110F1213EDCF4A81441F09362A
S11302D051F10D3211F0013E29F70093FF003F91D7
S11302E05F914F911F910F912F91DF910F90CAB79A
S11302F0C6FD1BCFCF91CFBFCF9118952091FF00A2
S1130300222369F31091FD00112379F534307AF139
S11303103093FD002093F9001091FA003BE0311B6B
S11303203093FA0024C00091FD000130F4F40AE592
S11303304F7049F43091C20034FD1AC00093C200DA
S1130340C1EED0E019C03091EC0034FD11C000932F
S1130350EC00CDEED0E010C0052710E000C021C0B5
S1130360052710E0C89508BB14C03AE501C032ED7A
S1130370032EC0E0D0E032E017B31560C29A08B390
S113038017BB55E020E84FEF20FF052708BB279552
S113039017951C3F28F700004552B0F720FF0527AA
S11303A0279508BB17951C3FB8F629913A9561F734
S11303B00A7F1091FE00110F08BBC250D04011F00B
S11303C01093F80010E41ABF046017B31A7F402F8B
S11303D04A7F54E05A95F1F708BB17BB48BB7FCF5F
S11303E09091670090FF0CC0BC9ABD9A80FF02C038
S11303F0C49A01C0C49881FF02C0C59A0895C598E3
S113040008954F925F926F927F928F929F92AF92D4
S1130410BF92CF92DF92EF92FF920F931F93CF93ED
S1130420C42FE6E6F0E0668377838087918744856E
S113043055858417950790F040917400509175008C
S11304408417950748F040917600509177008417FF
S1130450950730F422E005C021E003C020E001C08C
S113046023E0422F50E0FA01EE0FFF1FEE0FFF1FB3
S1130470E258FF4F4080518062807380FA01EE0F92
S1130480FF1FEE0FFF1FE257FF4F80809180A28075
S1130490B380C12CD12C76018B019C01E1E20419BB
S11304A0150926093709889420F4C80CD91CEA1CBC
S11304B0FB1CF794E794D794C79437952795179521
S11304C00795EA9589F7EBE0220F331FCC1CDD1C5E
S11304D0EE1CFF1CEA95C1F7FA01EA59FF4F848923
S11304E07FDF4C2FC701B6019BD0CF911F910F9195
S11304F0FF90EF90DF90CF90BF90AF909F908F9040
S11305007F906F905F904F900895CF93C82FB6D38C
S11305108091A600880FDED38091D800811104C099
S11305208C2FD8D381E001C080E0CF910895CF9380
S1130530DF9387EEEADF882341F0CCECD0E08885B6
S1130540C9D38985C7D38A85C5D3A6D3DF91CF9173
S1130550089586E696E6A6E0B0E08093A70090931F
S1130560A800A093A900B093AA008091A3008230B0
S113057079F08330D1F080E090E0A0E8BBEB809389
S1130580AB009093AC00A093AD00B093AE0019C043
S113059080E090E0A0E0B4E68093AB009093AC00E0
S11305A0A093AD00B093AE000CC080E090E0A0EA50
S11305B0B8E28093AB009093AC00A093AD00B093ED
S11305C0AE0081E08093D7000895B39B1BC0809157
S11305D0D7008823D1F01092C4001092C500109265
S11305E0C6001092C70060916C0070916D008091FC
S11305F06E0090916F0040E004DF8091D8008093FA
S1130600D700089581E08093D7000895CF93C62F33
S11306107CDF882311F08C2F5DD33ED3CF910895D6
S11306203F924F925F926F927F928F929F92AF927E
S1130630BF92CF92DF92EF92FF920F931F93CF93CB
S1130640DF93CDB7DEB768970FB6F894DEBF0FBE61
S1130650CDBF2091A3002430E1F00091A7001091B8
S1130660A8002091A9003091AA00601771078207A1
S1130670930708F410C20091AB001091AC002091D4
S1130680AD003091AE00061717072807390708F4A4
S113069002C22B013C018091700090917100892B62
S11306A009F4F6C08091C4009091C500A091C600E1
S11306B0B091C7000097A105B10509F4E9C0930101
S11306C082014C015D01898B9A8AAB8ABC8A912E86
S11306D0A22EB32E242D392D4A2D5B2D60E070E01F
S11306E080E090E0A988BA88CB88DC88E12CF12CE2
S11306F000E010E0DBD729873A874B875C87E92F36
S1130700E07829F0A5D729873A874B875C878B85C2
S11307109C85807C892B09F0BBC009851A852B85B3
S11307203C85812C912C5401B501A40189E09DE301
S113073075016401AA27BB270CC0400F511F621F1B
S1130740731FCA1EDB1E000F111F221F331FAA1F97
S1130750BB1F9695879588F39040A9F7970186016A
S113076049835A836B837C83CD82DE82EF82F88651
S11307708F819885C090C400D090C500E090C600D9
S1130780F090C70049830D8329813A814B815C81B4
S11307906D817E81F4E4220F331F441F551F661FB1
S11307A0771F881C991CAA1CBB1C28F08C149D0460
S11307B0AE04BF0428F08C189D08AE08BF0823952A
S11307C0FA9549F73A8329835C834B837E836D834F
S11307D03A815C817E8129873A874B875C870EE06A
S11307E049D7A0917000B09171004D01AA2EB92C87
S11307F0C12CD12CE12CF12C00E010E060D708F0E2
S113080047C009851A852B853C8540E050E0BA0134
S11308108CE396E85A016B01AA27BB270CC0400F52
S1130820511F621F731FAA1EBB1E000F111F221F20
S1130830331FAA1FBB1F9695879588F39040A9F78D
S11308409601850149835A836B837C83AD82BE8282
S1130850CF82D886642FFA814B815C817E818F811F
S11308609885E11104C04B875C87AD8607C0262FAD
S11308703F2F602FEDD64B875C876D87ECECF0E063
S11308808B8580878C8581878D85828750DE03C127
S11308904092C4005092C5006092C6007092C70096
S11308A060E070E0CB0180919F009091A0008301F3
S11308B020E030E0A9019801A9D6DA01C901072E88
S11308C07BE0B695A795979587957A95D1F7702D86
S11308D0FC013770232B09F03196CF016EEF77E0DE
S11308E081D6662391F080E066958F5F6111FCCF1D
S11308F0863008F085E0282F082E02C0F695E7958B
S11309000A94E2F7882319F00DC020E030E0E232C7
S1130910F10528F0E0FF05C0319680E003C080E0D7
S113092001C080E04CEC50E0DA01EC939F2F97700B
S11309308295807F892B11968C9302C0EE0FFF1F46
S11309402A95E2F7C12CD12C760146015701970173
S11309508601AA27BB270CC0840C951CA61CB71CB7
S11309600A1F1B1F440C551C661C771CAA1FBB1FA7
S1130970F695E79588F3F040A9F789829A82AB82CD
S1130980BC820D831E832F8338874090680050906B
S1130990690060906A0070906B0089820D836981A0
S11309A07A812B813C818D819E81E3E5660F771FDF
S11309B0221F331F881F991FCC1CDD1CEE1CFF1C3B
S11309C028F0C414D504E604F70428F0C418D508A4
S11309D0E608F7086395EA9549F77A8369833C83C7
S11309E02B839E838D837A813C819E81FA0162836D
S11309F07383248335838683978360E08FEF06DED9
S1130A008091D800811135C060E085E4FFDD60E0AD
S1130A1081E1FCDD87E179DD882341F00CEC10E015
S1130A20D8018C9157D1F801818154D135D18AE113
S1130A306CDD8823B9F00CEC10E0D80112968C918F
S1130A4049D1F801838146D1D80114968C9142D1C1
S1130A50F80185813FD1D80116968C913BD1F801DC
S1130A60878138D119D168E087E0D0DD61E081E188
S1130A70CDDD8091D400811108C08091D500811111
S1130A8004C08091D600882331F0ECECF0E01086AD
S1130A90118612864CDD68960FB6F894DEBF0FBE41
S1130AA0CDBFDF91CF911F910F91FF90EF90DF9019
S1130AB0CF90BF90AF909F908F907F906F905F90FA
S1130AC04F903F9008950F931F93CF93DF9387E147
S1130AD01CDD882371F0D2D08091A600880F81603C
S1130AE0F9D011D1CCECD0E08883E2D00CD1898349
S1130AF0E8D0D2D08AE109DD8823A1F0BFD080916B
S1130B00A600880F8160E6D0CEECD0E003ED10E0C3
S1130B10FAD08993CDD0C017D107D1F7F4D0809300
S1130B20D300CFD0B9D087EEF0DC882389F0A6D0EB
S1130B308091A600880F8160CDD0E5D0CCECD0E0C8
S1130B408887B6D0E0D08987B3D0DDD08A87B9D082
S1130B50A3D08091D800811102C08BE001C080E055
S1130B60DF91CF911F910F910895CF92DF92EF9271
S1130B70FF920F931F93CF93DF93FC016081862F25
S1130B808295869587703181660F660F6C77932FF7
S1130B909295969596959370692B9581548173815E
S1130BA0A2813F7340E0D9E2242F0D2F0F2EF2ECE7
S1130BB0CF2EF5EFDF2EF8E4EF2EF2E7FF2EF02D27
S1130BC0C42FB42F142F889420F42C0DCD1DBE1DDA
S1130BD01F1D1795B795C79527953795A7957795B1
S1130BE0579597950A9581F7AA0F331F221FCC1F9B
S1130BF0BB1F111F8C5F6F5F70E090E0E2D46C2F1D
S1130C005B2FA12F7D2FB42F8894331F221F661FC3
S1130C10551FAA1F441FBB1F481BB90B20F4480FC4
S1130C20B91F889401C008947A9579F73083218399
S1130C3062835383DF91CF911F910F91FF90EF90C7
S1130C40DF90CF9008952BE12A95F1F700C082E35D
S1130C5090E00AC02BE12A95F1F700C0019721F436
S1130C6081E08093D8000895B39BF4CF0895B99898
S1130C70BB98E9DF86B3BB9A827008951092D800BE
S1130C80BB98B99A8BE18A95F1F700C0BB9A8BE1C6
S1130C908A95F1F700C00895B99ABB988BE18A95BB
S1130CA0F1F700C0B9988BE18A95F1F700C0089577
S1130CB0B99ABB98C8DFBB9A8BE18A95F1F700C05B
S1130CC00895B998BB98BFDFBB9A8BE18A95F1F779
S1130CD000C008951F93CF93DF93182FC8E0D0E886
S1130CE0812F8D2311F4E4DF01C0EBDFD695C150D1
S1130CF0B9F7BDDF9091D800892B8093D800DF919C
S1130D00CF911F910895CF93DF93D8E0C0E0CC0F2B
S1130D10AEDF8111C160D150D1F78C2FDF91CF911B
S1130D2008951895CF93DF93EC018091C800803328
S1130D3061F46B3009F089C0CE0117DF68817981D5
S1130D408A819B8140E05DDB80C0813309F03FC034
S1130D50683009F07AC06091C90063706093C9007B
S1130D6070E06A5F7F4F660F771F660F771FFB0186
S1130D70EA59FF4F88819981918380838A819B817D
S1130D80938382836050704044E050E0CE01B8D435
S1130D90CE0104966091C90070E0665F7F4F660FD4
S1130DA0771F660F771FFB01EA59FF4F2C813D81A6
S1130DB031832083DC0112962D913C911397338368
S1130DC022836050704044E050E09AD43EC08233A5
S1130DD051F46430D1F5688179818A819B81409195
S1130DE0C9000FDB32C08333A9F4643071F5888104
S1130DF09981AA81BB818093680090936900A09334
S1130E006A00B0936B0044E050E062E070E0CE0111
S1130E1077D41BC0843349F46430B9F444E050E01F
S1130E2066E070E0CE016CD410C0853371F462309A
S1130E3061F488819981909371008093700042E0FD
S1130E4050E06AE070E0CE015BD481E0DF91CF91A5
S1130E5008950F931F93CF93DF93EC01998190939F
S1130E60C800E9EDF0E0F093FC00E093FB008FEFA5
S1130E708083911108C080E19FE09093DA00809311
S1130E80D90082E0A7C1913029F48A818A7F87BB87
S1130E9080E0A0C1923029F486B38093D90081E028
S1130EA099C1933029F488B38093D90081E092C129
S1130EB0943051F490916700892F817090FD7DC129
S1130EC09A819A7F98BB86C19F3009F4FFCF8BEE3D
S1130ED0890F823008F473C19731B9F51C818D8173
S1130EE081116FC1143048F5212F30E04A815B81B4
S1130EF02A5F3F4F220F331FC9018A599F4FFC01BC
S1130F0051834083B9016050704042E050E0F8D30F
S1130F10133099F48A81882331F0E6E6F0E0818188
S1130F208160818305C0E6E6F0E081818E7F818364
S1130F306091670081E090E0ECD382E790E09093C9
S1130F40FC008093FB0088E045C1903249F46C8139
S1130F508B815CDB8091D8008093D90081E03AC119
S1130F6080ED890F863028F48C818093C9008FEF3F
S1130F7031C1993369F58C81837090E0A9EDB0E0BB
S1130F80FC01EE0FFF1FEE0FFF1FE258FF4F208101
S1130F90318111963C932E932281338113963C9395
S1130FA02E931297ADEDB0E0880F991F880F991F0B
S1130FB0FC01E257FF4F8081918111969C938E939F
S1130FC08281938113969C938E93129788E002C139
S1130FD09A3341F48CE690E09093FC008093FB00FC
S1130FE084E0F8C09B3341F480E790E09093FC00E8
S1130FF08093FB0082E0EEC09C3349F444E050E06F
S113100066E070E089ED90E063D384E0E3C09D3353
S113101041F488E690E09093FC008093FB0084E028
S1131020D9C09F3369F48CEC90E09093FC008093DA
S1131030FB008C81811102C08091A40044DDCAC0F0
S1131040903431F48091D8008093D90081E0C2C0FB
S1131050913479F48091A6008093D9006A81662343
S113106009F4B1C06093A60080E490E052D381E01B
S1131070B1C0923439F4F7D09093DA008093D90058
S113108082E0A8C0933479F480919E008093D900C3
S11310906A81662309F499C060939E0088E390E016
S11310A038D381E097C0943489F56A81662379F056
S11310B006E610E0F80165AF8DE390E02AD36B817A
S11310C0F80166AF8EE390E024D343DA7EDA6C81D4
S11310D07D816115710591F08B81811108C0709338
S11310E0A00060939F0089E390E021D307C0709330
S11310F0A2006093A1008BE390E019D38FE990E004
S11311009093FC008093FB0086E064C0953441F426
S113111080E690E09093FC008093FB0086E05AC048
S11311209831A1F41A81CC81C370D0E0612FCE0133
S11311308C5E9F4FEED2CA59DF4F1C8B8AE790E03A
S11311409093FC008093FB0084E044C0993141F407
S11311508AE790E09093FC008093FB0084E03AC01F
S113116080EB890F8230B8F482E28093D9008091B9
S1131170670080FD2CC0903531F48A81811102C052
S1131180C49801C0C49A86B3E9EDF0E09081892344
S1131190808381E01FC09535E1F4E6E6F0E06181EB
S11311A08A81682B8C818095682361836093D90040
S11311B081E090E0AED281E00DC080E00BC082E01F
S11311C009C080E007C081E005C081E003C081E080
S11311D001C081E0DF91CF911F910F91089580E4C8
S11311E090E086D28F3F41F449E450E060E070E043
S11311F086E690E085D207C049E450E060E070E004
S113120086E690E065D2809166008F3F09F081BF49
S1131210A0D9DBD980919E0090E09093C000809388
S1131220BF002FE089E095E0215080409040E1F735
S113123000C00000BA9A2FE384E294E12150804078
S11312409040E1F700C00000BA989CE088E10FB636
S1131250F894A89581BD0FBE91BDA6D17894A895A8
S113126053D0B3D9FCCF8FE887B987EC86B93699C8
S1131270FECF84B195B116B80895DF92EF92FF9234
S11312800F931F93CF93DF936894EE24E3F8F12C2C
S1131290D12C10E8012F0D0D01BF31D7EC01C4335F
S11312A089E0D8070CF4D02E169581E0E81AF108ED
S11312B089F78FEF8D0D81BF81B70D2D10E00F5F82
S11312C01F4F90E008171907B4F019D784539940B9
S11312D09C0122F422273327281B390B2C173D07A6
S11312E014F4D1B6E90181B78F5F81BF81B790E073
S11312F00817190754F7D1BEDF91CF911F910F91B1
S1131300FF90EF90DF900895CF93DF936091FD00FD
S113131063500AF4CCC02091FA008CE090E0821B68
S11313209109EC01CF5FDE4F8091F9008D3209F015
S1131330ADC0683009F0B9C083EC8093E1008AE560
S11313408093C2001092CB008881807619F0CE0180
S113135080DD88C09A811092EA008981811106C0DB
S11313601092EB002AEE30E082E078C0853031F450
S11313709093FE002AEE30E080E070C0863009F0E1
S11313804DC08B81813049F487E390E09093FC0059
S11313908093FB0090E482E13EC0823049F48EE108
S11313A090E09093FC008093FB0090E489E133C0CB
S11313B0833061F5911109C089E790E09093FC00B6
S11313C08093FB0090E484E026C0913049F48FE5DB
S11313D090E09093FC008093FB0090E48AE11BC0B2
S11313E0923049F489E490E09093FC008093FB00F0
S11313F090E486E110C0933061F48FEA90E090931A
S1131400FC008093FB0090E082E105C090E480E062
S113141002C090E480E09093CB0024C0883099F01F
S1131420893031F4909300012AEE30E080E016C058
S11314308A3069F08B3079F48BE48093ED002AEEE6
S113144030E080E00BC020E031E081E007C02AEE0C
S113145030E081E003C02AEE30E080E03093FC000D
S11314602093FB008F3F41F4988199230CF48E81E3
S113147090E89093CB0007C09F81911104C09E8196
S1131480981708F4892F8093C1000FC08091CB0076
S113149088235CF4CE0146DC8F3F21F48EE18093F7
S11314A0C20003C081111092C1001092FD0080910E
S11314B0C20084FF4CC08091C1008F3F09F447C033
S11314C0C82F893008F0C8E08C1B8093C100E1EE7E
S11314D0F0E0908188E889278083CC2309F45AC0FE
S11314E02091FB003091FC008091CB0086FF10C05E
S11314F0A2EEB0E0F9018C2F94919D933196815026
S1131500D9F78FEF8C0F90E00196280F391F0EC08A
S1131510D901E2EEF0E08C2F9D9191938150E1F797
S11315208FEF8C0F90E00196280F391F3093FC0049
S11315302093FB006C2F82EE90E0DDD564E06C0F0D
S11315406C3018F48FEF8093C1006093C20086B3AF
S11315508570B9F493E186B38570A1F49150D9F7FD
S11315601092FE001092F8008091CA00813029F494
S113157018C0F89482DE789401C0C1E0C093CA0018
S113158010C094E1C1E09111C0E08091CA00C81775
S113159041F0EFCF6C2F82EE90E0ADD564E06C0F9C
S11315A0D1CFDF91CF91089585B7826085BF8BB786
S11315B080648BBFECEEF0E08BE481838AE580836A
S11315C008950024552704C0080E591F880F991F39
S11315D0009729F076956795B8F37105B9F7802DD2
S11315E0952F0895AA1BBB1B51E107C0AA1FBB1F5F
S11315F0A617B70710F0A61BB70B881F991F5A959B
S1131600A9F780959095BC01CD010895A1E21A2E09
S1131610AA1BBB1BFD010DC0AA1FBB1FEE1FFF1F92
S1131620A217B307E407F50720F0A21BB30BE40BE2
S1131630F50B661F771F881F991F1A9469F7609529
S11316407095809590959B01AC01BD01CF010895E3
S1131650609570958095909530954095509521951D
S11316603F4F4F4F5F4F6F4F7F4F8F4F9F4F0895A7
S113167097FB10F8169400080F93083098F0085060
S1131680232F342F452F562F672F782F892F902DF6
S1131690F4CF0594979587957795679557954795D2
S11316A0379527950A95AAF70F9108952A193B09AA
S11316B04C095D096E097F09800B910B08952A1569
S11316C03B054C055D056E057F0580079107089570
S11316D0DC01CB01FC01E199FECF06C0FFBBEEBBF0
S11316E0E09A31960DB20D9241505040B8F70895EA
S11316F0E199FECF9FBB8EBBE09A99278DB30895E5
S1131700DC01CB0102C02D9105D041505040D8F7E7
S11317100895262FE199FECF1CBA9FBB8EBB2DBB2B
S11317200FB6F894E29AE19A0FBE01960895F1DF9C
S10B1730272FF0CFF894FFCF3E
S1131738C00199999998FF00999999980000800C8B
S1131748B6030002000400080000000102030000C0
S1131758000000000000000000000000000000007D
S1131768200000002000000020000000200030308D
S11317782ADF300117305500000000000000001275
S11317880350004500300046004B004F002D003048
S107179800FF5A00F0
S9030000FC
